:020000040000FA
:0600000065EF03F01200A1
:0A0006000100040700008000000064
:040010000A000000E2
:0C001400D9CFE6FFE1CFD9FF020EE126B4
:10002000DE6ADD6ADECF14F0DDCF15F02C0E145C35
:10003000010E155805E2DF2A010E01E3DB2AF2D793
:10004000020EE15C02E2E16AE552E16EE552E7CFC1
:10005000D9FF1200D9CFE6FFE1CFD9FF040EE12688
:10006000DE6ADE6ADE6ADD6ADD52DD52D9CFE9FF83
:10007000DACFEAFF900EEE5C5F0EEE58010EEE58FE
:10008000000EEE580AE2D9CFE9FFDACFEAFFEE2AF6
:10009000000EEE22EE22EE22E9D7040EE15C02E22F
:1000A000E16AE552E16EE552E7CFD9FF1200D9CF00
:1000B000E6FFE1CFD9FF8B908B92FE0EDB508C6E6A
:1000C0008B828B92A7DFE552E7CFD9FF1200D9CF01
:1000D000E6FFE1CFD9FF8B808B92FE0EDB508C6E5A
:1000E0008B828B9297DFE552E7CFD9FF1200D9CFF1
:1000F000E6FFE1CFD9FF0001686B696B050E685D13
:10010000000E695925E2FD0EDB5068250F01E96EEE
:10011000FE0EDB50000169210F01EA6EEFCF75F092
:100120008B808B9275C08CFF8B828B9273DF050E58
:100130000001156A6825146E69511522800E142479
:10014000E66EB5DFE5520001682B000E6923D6D7B5
:10015000E552E7CFD9FF1200D9CFE6FFE1CFD9FFB3
:100160000001686B696B050E685D000E695925E238
:10017000FD0EDB5068250F01E96EFE0EDB5000011D
:1001800069210F01EA6EEFCF75F08B808B9275C0FD
:100190008CFF8B828B923EDF050E0001156A68256D
:1001A000146E69511522C00E1424E66E80DFE552EC
:1001B0000001682B000E6923D6D7E552E7CFD9FF9F
:1001C000120048DF380EE66E72DFE5520C0EE66E66
:1001D0006EDFE552010EE66E6ADFE5521200800E18
:1001E000E66E65DFE552560EE66E71DFE552310EC2
:1001F000E66E6DDFE5523D0EE66E69DFE552840E78
:10020000E66E55DFE552800EE66E000EE66E6FDF9D
:10021000E552E552C00EE66E4ADFE552560EE66E36
:1002200056DFE552320EE66E52DFE5523D0EE66EC7
:100230004EDFE552C40EE66E3ADFE552850EE66EFD
:10024000000EE66E89DFE552E5521200320E086EAE
:10025000096A60C00DF061C00EF021EC03F006C029
:100260006AF007C06BF000016C6B6D6B6AC06EF0DA
:100270006BC06FF06CC070F06DC071F00A0E0B6E49
:100280000C6A0D6A0E6A6EC006F06FC007F070C08F
:1002900008F071C009F0C5EC02F002C06EF003C0B6
:1002A0006FF004C070F005C071F06EC006F06FC052
:1002B00007F070C008F071C009F00B6A040E0C6EF4
:1002C0000D6A0E6AFDEC02F006C064F007C065F02E
:1002D000640E146E156A64C008F065C009F014C09D
:1002E0000DF015C00EF03FEC03F008C072F064C0D2
:1002F00014F065C015F0640E0D6E0E6A14C008F09F
:1003000015C009F03FEC03F004C014F005C015F06F
:1003100014C073F00A0E146E14C00EF073C009F00E
:1003200073EC03F005C074F00A0E146E14C00EF0E6
:1003300073C009F073EC03F009C073F0300E0001D4
:1003400072250001806F300E000173250001826F5D
:10035000300E000174250001836F320E086E096AA9
:1003600062C00DF063C00EF021EC03F006C06AF02D
:1003700007C06BF000016C6B6D6B6AC06EF06BC0F8
:100380006FF06CC070F06DC071F00A0E0B6E0C6AED
:100390000D6A0E6A6EC006F06FC007F070C008F0FC
:1003A00071C009F0C5EC02F002C06EF003C06FF03E
:1003B00004C070F005C071F06EC006F06FC007F0A9
:1003C00070C008F071C009F00B6A040E0C6E0D6A63
:1003D0000E6AFDEC02F006C066F007C067F0640E1E
:1003E000146E156A66C008F067C009F014C00DF0FD
:1003F00015C00EF03FEC03F008C072F066C014F0B8
:1004000067C015F0640E0D6E0E6A14C008F015C0BA
:1004100009F03FEC03F004C014F005C015F014C05F
:1004200073F00A0E146E14C00EF073C009F073EC72
:1004300003F005C074F00A0E146E14C00EF073C001
:1004400009F073EC03F009C073F0300E000172255F
:100450000001856F300E000173250001876F300E9B
:10046000000174250001886F1200C29AC298C296DA
:10047000C294C2801200C29AC298C296C284C2803C
:100480001200956A946A936894909492C186C1848C
:10049000C192C180C19AC198BC0EC06E92DEE5DFE8
:1004A000C280C282C2B2FED7C450146E156A14C094
:1004B00015F0146AC35000011424606F000E15205B
:1004C000616FD9DFC282C2B2FED7C450146E156A02
:1004D00014C015F0146AC35000011424626F000E9A
:0C04E0001520636FB3DE7BDEDAD712005C
:0404EC00060EF66E94
:1004F000000EF76E000EF86E00010900F5507B6FDC
:100500000900F5507C6F03E17B6701D03DD0090005
:10051000F550766F0900F550776F0900F550786F48
:1005200009000900F550E96E0900F550EA6E09006E
:1005300009000900F550796F0900F5507A6F09003C
:100540000900F6CF7DF0F7CF7EF0F8CF7FF076C0D0
:10055000F6FF77C0F7FF78C0F8FF0001795302E19A
:100560007A5307E00900F550EE6E7907F8E27A0752
:10057000F9D77DC0F6FF7EC0F7FF7FC0F8FF00010E
:0A0580007B07000E7C5BBFD7120062
:06058A0006500B02F3CF46
:1005900002F0F4CF03F00C02F3500326000EF42017
:1005A000046E06500D02F3500426000EF420056E72
:1005B00006500E02F350052607500B02F350032697
:1005C000F4500422000E052207500C02F3500426BA
:1005D000F450052207500D02F350052608500B0277
:1005E000F3500426F450052208500C02F35005265F
:0A05F00009500B02F350052612001B
:0605FA00056A046A036AB1
:10060000026A200EE76ED89006360736083609369D
:1006100002360336043605360B50025C0C50035884
:100620000D5004580E50055809E30B50025E0C5053
:10063000035A0D50045A0E50055A062AE72EE4D7E5
:020640001200A6
:0E06420008C012F008500D02F4CF07F0F3CFFD
:1006500006F009500E02F4CF09F0F3CF08F00D02B6
:10066000F3500726F4500822E86A092212500E02BD
:0E067000F3500726F4500822E86A0922000C15
:02067E00056A0B
:10068000046A100EE76ED89008360936043605362F
:100690000D50045C0E50055805E30D50045E0E50DD
:0A06A000055A082AE72EF0D71200D1
:0606AA00000EF36E00EEED
:1006B00000F0060E01D81200EA6002D0EE6AFCD704
:0A06C000F350E9601200EE6AFCD767
:0606CA0015EE00F025EE24
:1006D00000F0F86A019C76EC02F081EC03F041EC4A
:0606E00002F0FBD712003E
:0A06E600056A080EE76ED890093689
:1006F00005360E50055C02E3056E092AE72EF7D792
:020700001200E5
:020702001200E3
:0A0704005F2E5F5F565F2E5F5F56A9
:00000001FF
